{
  "_format": "hh-sol-artifact-1",
  "contractName": "DocumentStorage",
  "sourceName": "contracts/DocumentStorage.sol",
  "abi": [
    {
      "inputs": [
        {
          "internalType": "string",
          "name": "",
          "type": "string"
        }
      ],
      "name": "documentsById",
      "outputs": [
        {
          "internalType": "string",
          "name": "issuer",
          "type": "string"
        },
        {
          "internalType": "address",
          "name": "issuerAddress",
          "type": "address"
        },
        {
          "internalType": "string",
          "name": "issueDate",
          "type": "string"
        },
        {
          "internalType": "string",
          "name": "documentType",
          "type": "string"
        },
        {
          "internalType": "string",
          "name": "issuedTo",
          "type": "string"
        },
        {
          "internalType": "string",
          "name": "link",
          "type": "string"
        }
      ],
      "stateMutability": "view",
      "type": "function"
    },
    {
      "inputs": [
        {
          "internalType": "string",
          "name": "id",
          "type": "string"
        }
      ],
      "name": "getDocumentById",
      "outputs": [
        {
          "components": [
            {
              "internalType": "string",
              "name": "issuer",
              "type": "string"
            },
            {
              "internalType": "address",
              "name": "issuerAddress",
              "type": "address"
            },
            {
              "internalType": "string",
              "name": "issueDate",
              "type": "string"
            },
            {
              "internalType": "string",
              "name": "documentType",
              "type": "string"
            },
            {
              "internalType": "string",
              "name": "issuedTo",
              "type": "string"
            },
            {
              "internalType": "string",
              "name": "link",
              "type": "string"
            }
          ],
          "internalType": "struct DocumentStorage.Document",
          "name": "",
          "type": "tuple"
        }
      ],
      "stateMutability": "view",
      "type": "function"
    },
    {
      "inputs": [
        {
          "internalType": "string",
          "name": "id",
          "type": "string"
        },
        {
          "internalType": "string",
          "name": "issuer",
          "type": "string"
        },
        {
          "internalType": "string",
          "name": "issueDate",
          "type": "string"
        },
        {
          "internalType": "string",
          "name": "documentType",
          "type": "string"
        },
        {
          "internalType": "string",
          "name": "issuedTo",
          "type": "string"
        },
        {
          "internalType": "string",
          "name": "link",
          "type": "string"
        }
      ],
      "name": "saveDocument",
      "outputs": [],
      "stateMutability": "nonpayable",
      "type": "function"
    }
  ],
  "bytecode": "0x608060405234801561001057600080fd5b50611137806100206000396000f3fe608060405234801561001057600080fd5b50600436106100415760003560e01c80636b32d20114610046578063aa8d0aa114610076578063dfc6c3fc14610092575b600080fd5b610060600480360381019061005b9190610b58565b6100c7565b60405161006d9190610fbf565b60405180910390f35b610090600480360381019061008b9190610b99565b6104f6565b005b6100ac60048036038101906100a79190610b58565b6106b1565b6040516100be96959493929190610efb565b60405180910390f35b6100cf610a1b565b600080836040516100e09190610ee4565b908152602001604051809103902060000180546001816001161561010002031660029004905011610146576040517f08c379a000000000000000000000000000000000000000000000000000000000815260040161013d90610f9f565b60405180910390fd5b6000826040516101569190610ee4565b90815260200160405180910390206040518060c0016040529081600082018054600181600116156101000203166002900480601f0160208091040260200160405190810160405280929190818152602001828054600181600116156101000203166002900480156102085780601f106101dd57610100808354040283529160200191610208565b820191906000526020600020905b8154815290600101906020018083116101eb57829003601f168201915b505050505081526020016001820160009054906101000a900473ffffffffffffffffffffffffffffffffffffffff1673ffffffffffffffffffffffffffffffffffffffff1673ffffffffffffffffffffffffffffffffffffffff168152602001600282018054600181600116156101000203166002900480601f0160208091040260200160405190810160405280929190818152602001828054600181600116156101000203166002900480156103005780601f106102d557610100808354040283529160200191610300565b820191906000526020600020905b8154815290600101906020018083116102e357829003601f168201915b50505050508152602001600382018054600181600116156101000203166002900480601f0160208091040260200160405190810160405280929190818152602001828054600181600116156101000203166002900480156103a25780601f10610377576101008083540402835291602001916103a2565b820191906000526020600020905b81548152906001019060200180831161038557829003601f168201915b50505050508152602001600482018054600181600116156101000203166002900480601f0160208091040260200160405190810160405280929190818152602001828054600181600116156101000203166002900480156104445780601f1061041957610100808354040283529160200191610444565b820191906000526020600020905b81548152906001019060200180831161042757829003601f168201915b50505050508152602001600582018054600181600116156101000203166002900480601f0160208091040260200160405190810160405280929190818152602001828054600181600116156101000203166002900480156104e65780601f106104bb576101008083540402835291602001916104e6565b820191906000526020600020905b8154815290600101906020018083116104c957829003601f168201915b5050505050815250509050919050565b600080876040516105079190610ee4565b90815260200160405180910390206000018054600181600116156101000203166002900490501461056d576040517f08c379a000000000000000000000000000000000000000000000000000000000815260040161056490610f7f565b60405180910390fd5b6040518060c001604052808681526020013373ffffffffffffffffffffffffffffffffffffffff168152602001858152602001848152602001838152602001828152506000876040516105c09190610ee4565b908152602001604051809103902060008201518160000190805190602001906105ea929190610a67565b5060208201518160010160006101000a81548173ffffffffffffffffffffffffffffffffffffffff021916908373ffffffffffffffffffffffffffffffffffffffff160217905550604082015181600201908051906020019061064e929190610a67565b50606082015181600301908051906020019061066b929190610a67565b506080820151816004019080519060200190610688929190610a67565b5060a08201518160050190805190602001906106a5929190610a67565b50905050505050505050565b600081805160208101820180518482526020830160208501208183528095505050505050600091509050806000018054600181600116156101000203166002900480601f0160208091040260200160405190810160405280929190818152602001828054600181600116156101000203166002900480156107735780601f1061074857610100808354040283529160200191610773565b820191906000526020600020905b81548152906001019060200180831161075657829003601f168201915b5050505050908060010160009054906101000a900473ffffffffffffffffffffffffffffffffffffffff1690806002018054600181600116156101000203166002900480601f0160208091040260200160405190810160405280929190818152602001828054600181600116156101000203166002900480156108375780601f1061080c57610100808354040283529160200191610837565b820191906000526020600020905b81548152906001019060200180831161081a57829003601f168201915b505050505090806003018054600181600116156101000203166002900480601f0160208091040260200160405190810160405280929190818152602001828054600181600116156101000203166002900480156108d55780601f106108aa576101008083540402835291602001916108d5565b820191906000526020600020905b8154815290600101906020018083116108b857829003601f168201915b505050505090806004018054600181600116156101000203166002900480601f0160208091040260200160405190810160405280929190818152602001828054600181600116156101000203166002900480156109735780601f1061094857610100808354040283529160200191610973565b820191906000526020600020905b81548152906001019060200180831161095657829003601f168201915b505050505090806005018054600181600116156101000203166002900480601f016020809104026020016040519081016040528092919081815260200182805460018160011615610100020316600290048015610a115780601f106109e657610100808354040283529160200191610a11565b820191906000526020600020905b8154815290600101906020018083116109f457829003601f168201915b5050505050905086565b6040518060c0016040528060608152602001600073ffffffffffffffffffffffffffffffffffffffff168152602001606081526020016060815260200160608152602001606081525090565b828054600181600116156101000203166002900490600052602060002090601f016020900481019282601f10610aa857805160ff1916838001178555610ad6565b82800160010185558215610ad6579182015b82811115610ad5578251825591602001919060010190610aba565b5b509050610ae39190610ae7565b5090565b5b80821115610b00576000816000905550600101610ae8565b5090565b600082601f830112610b1557600080fd5b8135610b28610b2382611012565b610fe1565b91508082526020830160208301858383011115610b4457600080fd5b610b4f8382846110ac565b50505092915050565b600060208284031215610b6a57600080fd5b600082013567ffffffffffffffff811115610b8457600080fd5b610b9084828501610b04565b91505092915050565b60008060008060008060c08789031215610bb257600080fd5b600087013567ffffffffffffffff811115610bcc57600080fd5b610bd889828a01610b04565b965050602087013567ffffffffffffffff811115610bf557600080fd5b610c0189828a01610b04565b955050604087013567ffffffffffffffff811115610c1e57600080fd5b610c2a89828a01610b04565b945050606087013567ffffffffffffffff811115610c4757600080fd5b610c5389828a01610b04565b935050608087013567ffffffffffffffff811115610c7057600080fd5b610c7c89828a01610b04565b92505060a087013567ffffffffffffffff811115610c9957600080fd5b610ca589828a01610b04565b9150509295509295509295565b610cbb8161107a565b82525050565b610cca8161107a565b82525050565b6000610cdb82611042565b610ce5818561104d565b9350610cf58185602086016110bb565b610cfe816110f0565b840191505092915050565b6000610d1482611042565b610d1e818561105e565b9350610d2e8185602086016110bb565b610d37816110f0565b840191505092915050565b6000610d4d82611042565b610d57818561106f565b9350610d678185602086016110bb565b80840191505092915050565b6000610d8060288361105e565b91507f546865726520697320616c7265616479206120646f63756d656e74207769746860008301527f20746869732069640000000000000000000000000000000000000000000000006020830152604082019050919050565b6000610de660218361105e565b91507f5468657265206973206e6f20646f63756d656e7420776974682074686973206960008301527f64000000000000000000000000000000000000000000000000000000000000006020830152604082019050919050565b600060c0830160008301518482036000860152610e5c8282610cd0565b9150506020830151610e716020860182610cb2565b5060408301518482036040860152610e898282610cd0565b91505060608301518482036060860152610ea38282610cd0565b91505060808301518482036080860152610ebd8282610cd0565b91505060a083015184820360a0860152610ed78282610cd0565b9150508091505092915050565b6000610ef08284610d42565b915081905092915050565b600060c0820190508181036000830152610f158189610d09565b9050610f246020830188610cc1565b8181036040830152610f368187610d09565b90508181036060830152610f4a8186610d09565b90508181036080830152610f5e8185610d09565b905081810360a0830152610f728184610d09565b9050979650505050505050565b60006020820190508181036000830152610f9881610d73565b9050919050565b60006020820190508181036000830152610fb881610dd9565b9050919050565b60006020820190508181036000830152610fd98184610e3f565b905092915050565b6000604051905081810181811067ffffffffffffffff82111715611008576110076110ee565b5b8060405250919050565b600067ffffffffffffffff82111561102d5761102c6110ee565b5b601f19601f8301169050602081019050919050565b600081519050919050565b600082825260208201905092915050565b600082825260208201905092915050565b600081905092915050565b60006110858261108c565b9050919050565b600073ffffffffffffffffffffffffffffffffffffffff82169050919050565b82818337600083830152505050565b60005b838110156110d95780820151818401526020810190506110be565b838111156110e8576000848401525b50505050565bfe5b6000601f19601f830116905091905056fea26469706673582212203aeb267e6818e28141a2f92367adbf6d5caab7b86abfb3828b1c65787f4538d364736f6c63430007030033",
  "linkReferences": {},
  "deployedLinkReferences": {}
}